{
  "contractName": "UserAuthentication",
  "abi": [
    {
      "inputs": [],
      "stateMutability": "nonpayable",
      "type": "constructor"
    },
    {
      "anonymous": false,
      "inputs": [
        {
          "indexed": false,
          "internalType": "string",
          "name": "username",
          "type": "string"
        },
        {
          "indexed": false,
          "internalType": "bytes32",
          "name": "newPasswordHash",
          "type": "bytes32"
        },
        {
          "indexed": false,
          "internalType": "bool",
          "name": "isAdmin",
          "type": "bool"
        }
      ],
      "name": "UserInfoUpdated",
      "type": "event"
    },
    {
      "anonymous": false,
      "inputs": [
        {
          "indexed": false,
          "internalType": "string",
          "name": "username",
          "type": "string"
        }
      ],
      "name": "UserLoggedIn",
      "type": "event"
    },
    {
      "anonymous": false,
      "inputs": [
        {
          "indexed": false,
          "internalType": "string",
          "name": "username",
          "type": "string"
        }
      ],
      "name": "UserLoggedOut",
      "type": "event"
    },
    {
      "anonymous": false,
      "inputs": [
        {
          "indexed": false,
          "internalType": "string",
          "name": "username",
          "type": "string"
        }
      ],
      "name": "UserRegistered",
      "type": "event"
    },
    {
      "inputs": [],
      "name": "owner",
      "outputs": [
        {
          "internalType": "address",
          "name": "",
          "type": "address"
        }
      ],
      "stateMutability": "view",
      "type": "function"
    },
    {
      "inputs": [
        {
          "internalType": "string",
          "name": "_username",
          "type": "string"
        },
        {
          "internalType": "bytes32",
          "name": "_passwordHash",
          "type": "bytes32"
        },
        {
          "internalType": "bool",
          "name": "_isAdmin",
          "type": "bool"
        }
      ],
      "name": "registerUser",
      "outputs": [],
      "stateMutability": "nonpayable",
      "type": "function"
    },
    {
      "inputs": [
        {
          "internalType": "string",
          "name": "_username",
          "type": "string"
        },
        {
          "internalType": "bytes32",
          "name": "_passwordHash",
          "type": "bytes32"
        }
      ],
      "name": "loginUser",
      "outputs": [],
      "stateMutability": "nonpayable",
      "type": "function"
    },
    {
      "inputs": [],
      "name": "logoutUser",
      "outputs": [],
      "stateMutability": "nonpayable",
      "type": "function"
    },
    {
      "inputs": [
        {
          "internalType": "bytes32",
          "name": "_newPasswordHash",
          "type": "bytes32"
        }
      ],
      "name": "updatePassword",
      "outputs": [],
      "stateMutability": "nonpayable",
      "type": "function"
    },
    {
      "inputs": [
        {
          "internalType": "string",
          "name": "_username",
          "type": "string"
        },
        {
          "internalType": "bool",
          "name": "_isAdmin",
          "type": "bool"
        }
      ],
      "name": "updateAdminStatus",
      "outputs": [],
      "stateMutability": "nonpayable",
      "type": "function"
    },
    {
      "inputs": [
        {
          "internalType": "address",
          "name": "_user",
          "type": "address"
        }
      ],
      "name": "isAdmin",
      "outputs": [
        {
          "internalType": "bool",
          "name": "",
          "type": "bool"
        }
      ],
      "stateMutability": "view",
      "type": "function"
    },
    {
      "inputs": [],
      "name": "isUserLoggedIn",
      "outputs": [
        {
          "internalType": "bool",
          "name": "",
          "type": "bool"
        }
      ],
      "stateMutability": "view",
      "type": "function"
    },
    {
      "inputs": [],
      "name": "getUser",
      "outputs": [
        {
          "internalType": "string",
          "name": "",
          "type": "string"
        }
      ],
      "stateMutability": "view",
      "type": "function"
    }
  ],
  "bytecode": "0x608060405234801561000f575f80fd5b50335f806101000a81548173ffffffffffffffffffffffffffffffffffffffff021916908373ffffffffffffffffffffffffffffffffffffffff1602179055506118718061005c5f395ff3fe608060405234801561000f575f80fd5b5060043610610091575f3560e01c8063832880e711610064578063832880e71461011b5780638da5cb5b14610139578063986518e814610157578063d8f145d214610173578063f2fb277d1461017d57610091565b80632203a5221461009557806324d7806c146100b1578063380eeece146100e157806361be861b146100fd575b5f80fd5b6100af60048036038101906100aa9190610d77565b610199565b005b6100cb60048036038101906100c69190610dfc565b61037c565b6040516100d89190610e41565b60405180910390f35b6100fb60048036038101906100f69190610f96565b61047a565b005b61010561065b565b6040516101129190610e41565b60405180910390f35b6101236106ad565b604051610130919061106a565b60405180910390f35b610141610778565b60405161014e9190611099565b60405180910390f35b610171600480360381019061016c91906110dc565b61079b565b005b61017b610949565b005b61019760048036038101906101929190611136565b610b1d565b005b5f60025f3373ffffffffffffffffffffffffffffffffffffffff1673ffffffffffffffffffffffffffffffffffffffff1681526020019081526020015f2080546101e2906111cf565b905011610224576040517f08c379a000000000000000000000000000000000000000000000000000000000815260040161021b90611249565b60405180910390fd5b5f60025f3373ffffffffffffffffffffffffffffffffffffffff1673ffffffffffffffffffffffffffffffffffffffff1681526020019081526020015f20805461026d906111cf565b80601f0160208091040260200160405190810160405280929190818152602001828054610299906111cf565b80156102e45780601f106102bb576101008083540402835291602001916102e4565b820191905f5260205f20905b8154815290600101906020018083116102c757829003601f168201915b50505050509050816001826040516102fc91906112a1565b90815260200160405180910390205f01819055507f0d17a81de798ef3b99ed7a21ff9f6ea63810a35b2531835063e0ddcaf5c750f8818360018460405161034391906112a1565b90815260200160405180910390206001015f9054906101000a900460ff16604051610370939291906112c6565b60405180910390a15050565b5f8060025f8473ffffffffffffffffffffffffffffffffffffffff1673ffffffffffffffffffffffffffffffffffffffff1681526020019081526020015f2080546103c6906111cf565b80601f01602080910402602001604051908101604052809291908181526020018280546103f2906111cf565b801561043d5780601f106104145761010080835404028352916020019161043d565b820191905f5260205f20905b81548152906001019060200180831161042057829003601f168201915b5050505050905060018160405161045491906112a1565b90815260200160405180910390206001015f9054906101000a900460ff16915050919050565b5f60025f3373ffffffffffffffffffffffffffffffffffffffff1673ffffffffffffffffffffffffffffffffffffffff1681526020019081526020015f2080546104c3906111cf565b905014610505576040517f08c379a00000000000000000000000000000000000000000000000000000000081526004016104fc9061134c565b60405180910390fd5b60018260405161051591906112a1565b908152602001604051809103902060010160019054906101000a900460ff16610573576040517f08c379a000000000000000000000000000000000000000000000000000000000815260040161056a906113b4565b60405180910390fd5b8060018360405161058491906112a1565b90815260200160405180910390205f0154146105d5576040517f08c379a00000000000000000000000000000000000000000000000000000000081526004016105cc9061141c565b60405180910390fd5b8160025f3373ffffffffffffffffffffffffffffffffffffffff1673ffffffffffffffffffffffffffffffffffffffff1681526020019081526020015f20908161061f91906115e0565b507f66ece5ba82771921bdbfdb2bf2e469359fdecc21f7a2dc5b5e978e84fe9ad2098260405161064f919061106a565b60405180910390a15050565b5f8060025f3373ffffffffffffffffffffffffffffffffffffffff1673ffffffffffffffffffffffffffffffffffffffff1681526020019081526020015f2080546106a5906111cf565b905011905090565b606060025f3373ffffffffffffffffffffffffffffffffffffffff1673ffffffffffffffffffffffffffffffffffffffff1681526020019081526020015f2080546106f7906111cf565b80601f0160208091040260200160405190810160405280929190818152602001828054610723906111cf565b801561076e5780601f106107455761010080835404028352916020019161076e565b820191905f5260205f20905b81548152906001019060200180831161075157829003601f168201915b5050505050905090565b5f8054906101000a900473ffffffffffffffffffffffffffffffffffffffff1681565b600160025f3373ffffffffffffffffffffffffffffffffffffffff1673ffffffffffffffffffffffffffffffffffffffff1681526020019081526020015f206040516107e7919061172f565b90815260200160405180910390206001015f9054906101000a900460ff16610844576040517f08c379a000000000000000000000000000000000000000000000000000000000815260040161083b906117b5565b60405180910390fd5b60018260405161085491906112a1565b908152602001604051809103902060010160019054906101000a900460ff166108b2576040517f08c379a00000000000000000000000000000000000000000000000000000000081526004016108a9906113b4565b60405180910390fd5b806001836040516108c391906112a1565b90815260200160405180910390206001015f6101000a81548160ff0219169083151502179055507f0d17a81de798ef3b99ed7a21ff9f6ea63810a35b2531835063e0ddcaf5c750f88260018460405161091c91906112a1565b90815260200160405180910390205f01548360405161093d939291906112c6565b60405180910390a15050565b5f60025f3373ffffffffffffffffffffffffffffffffffffffff1673ffffffffffffffffffffffffffffffffffffffff1681526020019081526020015f208054610992906111cf565b9050116109d4576040517f08c379a00000000000000000000000000000000000000000000000000000000081526004016109cb90611249565b60405180910390fd5b5f60025f3373ffffffffffffffffffffffffffffffffffffffff1673ffffffffffffffffffffffffffffffffffffffff1681526020019081526020015f208054610a1d906111cf565b80601f0160208091040260200160405190810160405280929190818152602001828054610a49906111cf565b8015610a945780601f10610a6b57610100808354040283529160200191610a94565b820191905f5260205f20905b815481529060010190602001808311610a7757829003601f168201915b5050505050905060025f3373ffffffffffffffffffffffffffffffffffffffff1673ffffffffffffffffffffffffffffffffffffffff1681526020019081526020015f205f610ae39190610cdb565b7f34ed8fb20d85b6fb0e3319e6d5a3ffdec9605b798082611f73aaab3e4ad7d43081604051610b12919061106a565b60405180910390a150565b5f60025f3373ffffffffffffffffffffffffffffffffffffffff1673ffffffffffffffffffffffffffffffffffffffff1681526020019081526020015f208054610b66906111cf565b905014610ba8576040517f08c379a0000000000000000000000000000000000000000000000000000000008152600401610b9f9061134c565b60405180910390fd5b600183604051610bb891906112a1565b908152602001604051809103902060010160019054906101000a900460ff1615610c17576040517f08c379a0000000000000000000000000000000000000000000000000000000008152600401610c0e9061181d565b60405180910390fd5b6040518060600160405280838152602001821515815260200160011515815250600184604051610c4791906112a1565b90815260200160405180910390205f820151815f01556020820151816001015f6101000a81548160ff02191690831515021790555060408201518160010160016101000a81548160ff0219169083151502179055509050507f270ff4b111e5baa49283562af127cc5ea74e9d6c9efd5465578bd9223d5843f083604051610cce919061106a565b60405180910390a1505050565b508054610ce7906111cf565b5f825580601f10610cf85750610d15565b601f0160209004905f5260205f2090810190610d149190610d18565b5b50565b5b80821115610d2f575f815f905550600101610d19565b5090565b5f604051905090565b5f80fd5b5f80fd5b5f819050919050565b610d5681610d44565b8114610d60575f80fd5b50565b5f81359050610d7181610d4d565b92915050565b5f60208284031215610d8c57610d8b610d3c565b5b5f610d9984828501610d63565b91505092915050565b5f73ffffffffffffffffffffffffffffffffffffffff82169050919050565b5f610dcb82610da2565b9050919050565b610ddb81610dc1565b8114610de5575f80fd5b50565b5f81359050610df681610dd2565b92915050565b5f60208284031215610e1157610e10610d3c565b5b5f610e1e84828501610de8565b91505092915050565b5f8115159050919050565b610e3b81610e27565b82525050565b5f602082019050610e545f830184610e32565b92915050565b5f80fd5b5f80fd5b5f601f19601f8301169050919050565b7f4e487b71000000000000000000000000000000000000000000000000000000005f52604160045260245ffd5b610ea882610e62565b810181811067ffffffffffffffff82111715610ec757610ec6610e72565b5b80604052505050565b5f610ed9610d33565b9050610ee58282610e9f565b919050565b5f67ffffffffffffffff821115610f0457610f03610e72565b5b610f0d82610e62565b9050602081019050919050565b828183375f83830152505050565b5f610f3a610f3584610eea565b610ed0565b905082815260208101848484011115610f5657610f55610e5e565b5b610f61848285610f1a565b509392505050565b5f82601f830112610f7d57610f7c610e5a565b5b8135610f8d848260208601610f28565b91505092915050565b5f8060408385031215610fac57610fab610d3c565b5b5f83013567ffffffffffffffff811115610fc957610fc8610d40565b5b610fd585828601610f69565b9250506020610fe685828601610d63565b9150509250929050565b5f81519050919050565b5f82825260208201905092915050565b5f5b8381101561102757808201518184015260208101905061100c565b5f8484015250505050565b5f61103c82610ff0565b6110468185610ffa565b935061105681856020860161100a565b61105f81610e62565b840191505092915050565b5f6020820190508181035f8301526110828184611032565b905092915050565b61109381610dc1565b82525050565b5f6020820190506110ac5f83018461108a565b92915050565b6110bb81610e27565b81146110c5575f80fd5b50565b5f813590506110d6816110b2565b92915050565b5f80604083850312156110f2576110f1610d3c565b5b5f83013567ffffffffffffffff81111561110f5761110e610d40565b5b61111b85828601610f69565b925050602061112c858286016110c8565b9150509250929050565b5f805f6060848603121561114d5761114c610d3c565b5b5f84013567ffffffffffffffff81111561116a57611169610d40565b5b61117686828701610f69565b935050602061118786828701610d63565b9250506040611198868287016110c8565b9150509250925092565b7f4e487b71000000000000000000000000000000000000000000000000000000005f52602260045260245ffd5b5f60028204905060018216806111e657607f821691505b6020821081036111f9576111f86111a2565b5b50919050565b7f55736572206973206e6f74206c6f6767656420696e00000000000000000000005f82015250565b5f611233601583610ffa565b915061123e826111ff565b602082019050919050565b5f6020820190508181035f83015261126081611227565b9050919050565b5f81905092915050565b5f61127b82610ff0565b6112858185611267565b935061129581856020860161100a565b80840191505092915050565b5f6112ac8284611271565b915081905092915050565b6112c081610d44565b82525050565b5f6060820190508181035f8301526112de8186611032565b90506112ed60208301856112b7565b6112fa6040830184610e32565b949350505050565b7f5573657220697320616c7265616479206c6f6767656420696e000000000000005f82015250565b5f611336601983610ffa565b915061134182611302565b602082019050919050565b5f6020820190508181035f8301526113638161132a565b9050919050565b7f5573657220646f6573206e6f74206578697374000000000000000000000000005f82015250565b5f61139e601383610ffa565b91506113a98261136a565b602082019050919050565b5f6020820190508181035f8301526113cb81611392565b9050919050565b7f496e76616c69642063726564656e7469616c73000000000000000000000000005f82015250565b5f611406601383610ffa565b9150611411826113d2565b602082019050919050565b5f6020820190508181035f830152611433816113fa565b9050919050565b5f819050815f5260205f209050919050565b5f6020601f8301049050919050565b5f82821b905092915050565b5f600883026114967fffffffffffffffffffffffffffffffffffffffffffffffffffffffffffffffff8261145b565b6114a0868361145b565b95508019841693508086168417925050509392505050565b5f819050919050565b5f819050919050565b5f6114e46114df6114da846114b8565b6114c1565b6114b8565b9050919050565b5f819050919050565b6114fd836114ca565b611511611509826114eb565b848454611467565b825550505050565b5f90565b611525611519565b6115308184846114f4565b505050565b5b81811015611553576115485f8261151d565b600181019050611536565b5050565b601f821115611598576115698161143a565b6115728461144c565b81016020851015611581578190505b61159561158d8561144c565b830182611535565b50505b505050565b5f82821c905092915050565b5f6115b85f198460080261159d565b1980831691505092915050565b5f6115d083836115a9565b9150826002028217905092915050565b6115e982610ff0565b67ffffffffffffffff81111561160257611601610e72565b5b61160c82546111cf565b611617828285611557565b5f60209050601f831160018114611648575f8415611636578287015190505b61164085826115c5565b8655506116a7565b601f1984166116568661143a565b5f5b8281101561167d57848901518255600182019150602085019450602081019050611658565b8683101561169a5784890151611696601f8916826115a9565b8355505b6001600288020188555050505b505050505050565b5f81546116bb816111cf565b6116c58186611267565b9450600182165f81146116df57600181146116f457611726565b60ff1983168652811515820286019350611726565b6116fd8561143a565b5f5b8381101561171e578154818901526001820191506020810190506116ff565b838801955050505b50505092915050565b5f61173a82846116af565b915081905092915050565b7f4f6e6c792061646d696e2063616e20706572666f726d207468697320616374695f8201527f6f6e000000000000000000000000000000000000000000000000000000000000602082015250565b5f61179f602283610ffa565b91506117aa82611745565b604082019050919050565b5f6020820190508181035f8301526117cc81611793565b9050919050565b7f5573657220616c726561647920657869737473000000000000000000000000005f82015250565b5f611807601383610ffa565b9150611812826117d3565b602082019050919050565b5f6020820190508181035f830152611834816117fb565b905091905056fea26469706673582212209ae769b050315a67d74f6cd53b7ca4c9169b4b5f5c6fd59a3530bf5d07ce0dea64736f6c63430008150033",
  "immutableReferences": {},
  "source": "// SPDX-License-Identifier: MIT\npragma solidity ^0.8.0;\n\ncontract UserAuthentication {\n    address public owner;\n    struct User {\n        bytes32 passwordHash;\n        bool isAdmin;\n        bool exists;\n    }\n\n    mapping(string => User) private users;\n    mapping(address => string) private loggedInUsers;\n\n    event UserRegistered(string username);\n    event UserLoggedIn(string username);\n    event UserLoggedOut(string username);\n    event UserInfoUpdated(string username, bytes32 newPasswordHash, bool isAdmin);\n\n    constructor() {\n        owner = msg.sender; // Set the deployer of the contract as the owner\n    }\n\n    modifier onlyAdmin() {\n        require(users[loggedInUsers[msg.sender]].isAdmin, \"Only admin can perform this action\");\n        _;\n    }\n\n    modifier notLoggedIn() {\n        require(bytes(loggedInUsers[msg.sender]).length == 0, \"User is already logged in\");\n        _;\n    }\n\n    modifier isLoggedIn() {\n        require(bytes(loggedInUsers[msg.sender]).length > 0, \"User is not logged in\");\n        _;\n    }\n\n    function registerUser(string memory _username, bytes32 _passwordHash, bool _isAdmin) external notLoggedIn {\n        require(!users[_username].exists, \"User already exists\");\n        users[_username] = User(_passwordHash, _isAdmin, true);\n        emit UserRegistered(_username);\n    }\n\n    function loginUser(string memory _username, bytes32 _passwordHash) external notLoggedIn {\n        require(users[_username].exists, \"User does not exist\");\n        require(users[_username].passwordHash == _passwordHash, \"Invalid credentials\");\n        loggedInUsers[msg.sender] = _username;\n        emit UserLoggedIn(_username);\n    }\n\n    function logoutUser() external isLoggedIn {\n        string memory username = loggedInUsers[msg.sender];\n        delete loggedInUsers[msg.sender];\n        emit UserLoggedOut(username);\n    }\n\n    function updatePassword(bytes32 _newPasswordHash) external isLoggedIn {\n        string memory username = loggedInUsers[msg.sender];\n        users[username].passwordHash = _newPasswordHash;\n        emit UserInfoUpdated(username, _newPasswordHash, users[username].isAdmin);\n    }\n\n    function updateAdminStatus(string memory _username, bool _isAdmin) external onlyAdmin {\n        require(users[_username].exists, \"User does not exist\");\n        users[_username].isAdmin = _isAdmin;\n        emit UserInfoUpdated(_username, users[_username].passwordHash, _isAdmin);\n    }\n\n    function isAdmin(address _user) external view returns (bool) {\n        string memory username = loggedInUsers[_user];\n        return users[username].isAdmin;\n    }\n\n    function isUserLoggedIn() external view returns (bool) {\n        return bytes(loggedInUsers[msg.sender]).length > 0;\n    }\n\n    function getUser() external view returns (string memory) {\n        return loggedInUsers[msg.sender];\n    }\n}\n",
  "sourcePath": "/home/bunny/Projects/BT PBL/server/contracts/UserAuthentication.sol",
  "compiler": {
    "name": "solc",
    "version": "0.8.21+commit.d9974bed.Emscripten.clang"
  },
  "schemaVersion": "3.4.16",
  "updatedAt": "2024-04-17T06:24:04.949Z",
  "devdoc": {
    "kind": "dev",
    "methods": {},
    "version": 1
  },
  "userdoc": {
    "kind": "user",
    "methods": {},
    "version": 1
  }
}