{
  "contractName": "Auth",
  "abi": [
    {
      "anonymous": false,
      "inputs": [
        {
          "indexed": false,
          "internalType": "string",
          "name": "challengeName",
          "type": "string"
        },
        {
          "indexed": false,
          "internalType": "string",
          "name": "flag",
          "type": "string"
        },
        {
          "indexed": false,
          "internalType": "uint256",
          "name": "points",
          "type": "uint256"
        }
      ],
      "name": "createFlag",
      "type": "event"
    },
    {
      "anonymous": false,
      "inputs": [
        {
          "indexed": false,
          "internalType": "string",
          "name": "username",
          "type": "string"
        },
        {
          "indexed": false,
          "internalType": "string",
          "name": "email",
          "type": "string"
        },
        {
          "indexed": false,
          "internalType": "string",
          "name": "password",
          "type": "string"
        }
      ],
      "name": "userCreated",
      "type": "event"
    },
    {
      "inputs": [
        {
          "internalType": "string",
          "name": "",
          "type": "string"
        }
      ],
      "name": "challenges",
      "outputs": [
        {
          "internalType": "string",
          "name": "challengeName",
          "type": "string"
        },
        {
          "internalType": "string",
          "name": "flag",
          "type": "string"
        },
        {
          "internalType": "uint256",
          "name": "points",
          "type": "uint256"
        }
      ],
      "stateMutability": "view",
      "type": "function",
      "constant": true
    },
    {
      "inputs": [],
      "name": "userCount",
      "outputs": [
        {
          "internalType": "uint256",
          "name": "",
          "type": "uint256"
        }
      ],
      "stateMutability": "view",
      "type": "function",
      "constant": true
    },
    {
      "inputs": [
        {
          "internalType": "string",
          "name": "",
          "type": "string"
        }
      ],
      "name": "usersList",
      "outputs": [
        {
          "internalType": "string",
          "name": "username",
          "type": "string"
        },
        {
          "internalType": "string",
          "name": "email",
          "type": "string"
        },
        {
          "internalType": "string",
          "name": "password",
          "type": "string"
        }
      ],
      "stateMutability": "view",
      "type": "function",
      "constant": true
    },
    {
      "inputs": [
        {
          "internalType": "string",
          "name": "_username",
          "type": "string"
        },
        {
          "internalType": "string",
          "name": "_email",
          "type": "string"
        },
        {
          "internalType": "string",
          "name": "_password",
          "type": "string"
        }
      ],
      "name": "createUser",
      "outputs": [],
      "stateMutability": "nonpayable",
      "type": "function"
    },
    {
      "inputs": [
        {
          "internalType": "string",
          "name": "_challengeName",
          "type": "string"
        },
        {
          "internalType": "string",
          "name": "_flag",
          "type": "string"
        },
        {
          "internalType": "uint256",
          "name": "_points",
          "type": "uint256"
        }
      ],
      "name": "saveFlag",
      "outputs": [],
      "stateMutability": "nonpayable",
      "type": "function"
    }
  ],
  "bytecode": "0x60806040526000805534801561001457600080fd5b50610c41806100246000396000f3fe608060405234801561001057600080fd5b50600436106100575760003560e01c806307973ccf1461005c578063314adaf21461007a5780634cbce6ac146100ac57806359ae069b146100de578063f397c1e5146100fa575b600080fd5b610064610116565b60405161007191906106aa565b60405180910390f35b610094600480360381019061008f919061081f565b61011c565b6040516100a3939291906108f0565b60405180910390f35b6100c660048036038101906100c1919061081f565b61026c565b6040516100d593929190610935565b60405180910390f35b6100f860048036038101906100f39190610981565b610444565b005b610114600480360381019061010f9190610a54565b61052e565b005b60005481565b60028180516020810182018051848252602083016020850120818352809550505050505060009150905080600001805461015590610b0e565b80601f016020809104026020016040519081016040528092919081815260200182805461018190610b0e565b80156101ce5780601f106101a3576101008083540402835291602001916101ce565b820191906000526020600020905b8154815290600101906020018083116101b157829003601f168201915b5050505050908060010180546101e390610b0e565b80601f016020809104026020016040519081016040528092919081815260200182805461020f90610b0e565b801561025c5780601f106102315761010080835404028352916020019161025c565b820191906000526020600020905b81548152906001019060200180831161023f57829003601f168201915b5050505050908060020154905083565b6001818051602081018201805184825260208301602085012081835280955050505050506000915090508060000180546102a590610b0e565b80601f01602080910402602001604051908101604052809291908181526020018280546102d190610b0e565b801561031e5780601f106102f35761010080835404028352916020019161031e565b820191906000526020600020905b81548152906001019060200180831161030157829003601f168201915b50505050509080600101805461033390610b0e565b80601f016020809104026020016040519081016040528092919081815260200182805461035f90610b0e565b80156103ac5780601f10610381576101008083540402835291602001916103ac565b820191906000526020600020905b81548152906001019060200180831161038f57829003601f168201915b5050505050908060020180546103c190610b0e565b80601f01602080910402602001604051908101604052809291908181526020018280546103ed90610b0e565b801561043a5780601f1061040f5761010080835404028352916020019161043a565b820191906000526020600020905b81548152906001019060200180831161041d57829003601f168201915b5050505050905083565b60008081548092919061045690610b6f565b91905055506040518060600160405280848152602001838152602001828152506001836040516104869190610bf4565b908152602001604051809103902060008201518160000190805190602001906104b09291906105ee565b5060208201518160010190805190602001906104cd9291906105ee565b5060408201518160020190805190602001906104ea9291906105ee565b509050507fc50aadd178489c438b87db1b844b2d3380597c1c38fbcb15977a662c4404672e83838360405161052193929190610935565b60405180910390a1505050565b6040518060600160405280848152602001838152602001828152506002846040516105599190610bf4565b908152602001604051809103902060008201518160000190805190602001906105839291906105ee565b5060208201518160010190805190602001906105a09291906105ee565b50604082015181600201559050507f5deb854e9be9344f4853aba6905081e04a0d047edadbc9b3ece2f8d76ab5e07f8383836040516105e1939291906108f0565b60405180910390a1505050565b8280546105fa90610b0e565b90600052602060002090601f01602090048101928261061c5760008555610663565b82601f1061063557805160ff1916838001178555610663565b82800160010185558215610663579182015b82811115610662578251825591602001919060010190610647565b5b5090506106709190610674565b5090565b5b8082111561068d576000816000905550600101610675565b5090565b6000819050919050565b6106a481610691565b82525050565b60006020820190506106bf600083018461069b565b92915050565b6000604051905090565b600080fd5b600080fd5b600080fd5b600080fd5b6000601f19601f8301169050919050565b7f4e487b7100000000000000000000000000000000000000000000000000000000600052604160045260246000fd5b61072c826106e3565b810181811067ffffffffffffffff8211171561074b5761074a6106f4565b5b80604052505050565b600061075e6106c5565b905061076a8282610723565b919050565b600067ffffffffffffffff82111561078a576107896106f4565b5b610793826106e3565b9050602081019050919050565b82818337600083830152505050565b60006107c26107bd8461076f565b610754565b9050828152602081018484840111156107de576107dd6106de565b5b6107e98482856107a0565b509392505050565b600082601f830112610806576108056106d9565b5b81356108168482602086016107af565b91505092915050565b600060208284031215610835576108346106cf565b5b600082013567ffffffffffffffff811115610853576108526106d4565b5b61085f848285016107f1565b91505092915050565b600081519050919050565b600082825260208201905092915050565b60005b838110156108a2578082015181840152602081019050610887565b838111156108b1576000848401525b50505050565b60006108c282610868565b6108cc8185610873565b93506108dc818560208601610884565b6108e5816106e3565b840191505092915050565b6000606082019050818103600083015261090a81866108b7565b9050818103602083015261091e81856108b7565b905061092d604083018461069b565b949350505050565b6000606082019050818103600083015261094f81866108b7565b9050818103602083015261096381856108b7565b9050818103604083015261097781846108b7565b9050949350505050565b60008060006060848603121561099a576109996106cf565b5b600084013567ffffffffffffffff8111156109b8576109b76106d4565b5b6109c4868287016107f1565b935050602084013567ffffffffffffffff8111156109e5576109e46106d4565b5b6109f1868287016107f1565b925050604084013567ffffffffffffffff811115610a1257610a116106d4565b5b610a1e868287016107f1565b9150509250925092565b610a3181610691565b8114610a3c57600080fd5b50565b600081359050610a4e81610a28565b92915050565b600080600060608486031215610a6d57610a6c6106cf565b5b600084013567ffffffffffffffff811115610a8b57610a8a6106d4565b5b610a97868287016107f1565b935050602084013567ffffffffffffffff811115610ab857610ab76106d4565b5b610ac4868287016107f1565b9250506040610ad586828701610a3f565b9150509250925092565b7f4e487b7100000000000000000000000000000000000000000000000000000000600052602260045260246000fd5b60006002820490506001821680610b2657607f821691505b60208210811415610b3a57610b39610adf565b5b50919050565b7f4e487b7100000000000000000000000000000000000000000000000000000000600052601160045260246000fd5b6000610b7a82610691565b91507fffffffffffffffffffffffffffffffffffffffffffffffffffffffffffffffff821415610bad57610bac610b40565b5b600182019050919050565b600081905092915050565b6000610bce82610868565b610bd88185610bb8565b9350610be8818560208601610884565b80840191505092915050565b6000610c008284610bc3565b91508190509291505056fea2646970667358221220ed08928652f8296e507556fe3ab1d9c7a4617505921a57a84c8eb69005a9639564736f6c634300080b0033",
  "immutableReferences": {},
  "source": "// SPDX-License-Identifier: MIT\npragma solidity >=0.4.22 <0.9.0;\n\ncontract Auth\n{ \n\tuint public userCount = 0;\n\n\tmapping(string => user) public usersList;\n\n\tstruct user\n\t{\n\t\tstring username;\n\t\tstring email;\n\t\tstring password;\n\t}\n\n\tmapping(string => flags) public challenges;\n\n\tstruct flags {\n\t\tstring challengeName;\n\t\tstring flag;\n\t\tuint points;\n\t}\n\n// events\n\nevent userCreated(string username, string email, string password);\n\nfunction createUser(string memory _username, string memory _email, string memory _password) public\n{\t \n\tuserCount++;\n\tusersList[_email] = user(_username, _email, _password);\n\temit userCreated(_username, _email, _password);\n}\n\nevent createFlag(string challengeName, string flag, uint points);\n\nfunction saveFlag(string memory _challengeName, string memory _flag, uint _points) public {\n\tchallenges[_challengeName] = flags(_challengeName, _flag, _points);\n\temit createFlag(_challengeName, _flag, _points);\n}\n}\n",
  "sourcePath": "/home/bunny/Desktop/BT CTF/client/src/contracts/Auth.sol",
  "compiler": {
    "name": "solc",
    "version": "0.8.11+commit.d7f03943.Emscripten.clang"
  },
  "schemaVersion": "3.4.4",
  "updatedAt": "2024-05-01T17:22:40.397Z",
  "networkType": "ethereum",
  "devdoc": {
    "kind": "dev",
    "methods": {},
    "version": 1
  },
  "userdoc": {
    "kind": "user",
    "methods": {},
    "version": 1
  }
}